:0400000002001132B7
:03000B00020104EB
:10006A007508EE750903750A1E750B14750C337540
:10007A000D01750EFF750F0175103375110175129B
:10008A00FF7513017514337515017516FF75170180
:10009A00751833751901751AFF751B01751C3375AF
:1000AA001D01751EFF751F0175202D7521147522FE
:1000BA00E8752303E4F524F525E4F526F527E4F5A8
:0C00CA0028F529752A19752F0002000E78
:03000E000200E508
:1000D60075A882758901758CFC758A18D28C2212D6
:1000E60000D67580FF7590FF75A0FF758018120108
:1000F60063AE2A7F008E828F8312018480F0C0E077
:10010600C0D0758CFC758A180524E4B52402052533
:10011600E522B52443E523B5253EE4F524F525057A
:1001260028E4B5280205297401B52806E4B5290294
:1001360080028024E4F528F5290526E4B526020583
:1001460027743CB52606E4B527028002800AE4F54A
:1001560026F527752F01152AD0D0D0E032E52F607D
:1001660010E52A30E0047FF780027FDD8F80752F4F
:1001760000E52A24E65006758000752A1922AE820B
:10018600AF83C3EE9464EF94005004EE4F700A7E82
:10019600637F00752B09752C0975300A7531008E41
:1001A600828F83C007C0061201E8AC82D006D00752
:1001B6008C2B75300A7531008E828F83120211AE38
:1001C60082AF838E2CE52D30E00AE52B90026293F8
:1001D600F52E8008E52C90026C93F52E852E900561
:0201E6002D22C8
:100262000E1E2E3E4E5E6E7E8E9E0D1D2D3D4D5DF2
:040272006D7D8D9D74
:1001E8007A10E4FBFCE58225E0F582E58333F583AC
:1001F800EB33FBEC33FCEB9530F5F0EC9531400636
:09020800FCABF0438201DADD22B7
:06004000E478FFF6D8FD94
:10001E007900E94400601B7A00900276780075A0A2
:10002E0000E493F2A308B8000205A0D9F4DAF27541
:02003E00A0FF21
:10021100E530453160467A01E53025E0F530E531DC
:10022100334012F531E5829530E583953140030A7B
:1002310080E6C3E53113F531E53013F530C3E582CE
:100241009530F5F0E58395314005F58385F082C35E
:0D025100E53113F531E53013F530DAE12227
:100046007800E84400600A790075A000E4F309D856
:10005600FC7800E84400600C7900900000E4F0A30E
:04006600D8FCD9FAEF
:0D00110075813112025EE582600302000E6F
:04025E007582002283
:00000001FF
